:03000000020800F3
:0C080000787FE4F6D8FD758133020847CC
:1008E80008080102040810204080202010FFFFFFA4
:1008F800FFFFFFFFFF03EDEEEEEEED03FFFFFFFF4F
:0D090800FFFFFFFFFFFFFFFFFFFFFFFFFFEF
:10091600E4FDFCC3ED9FEC9E5015E4FBFA0BBB0017
:0F092600010AEB647D4A70F50DBD00010C80E401
:01093500229F
:10088C00E4F530F531E4F532F533900000AF8274C5
:10089C00082FF8E6F5B0AF82E5312F2410F8E6F515
:1008AC00A07F017E00120916E4F5B0A3E58264086E
:1008BC00458370D90533E53370020532C3941EE5C8
:1008CC00326480948040C30531E53170020530C339
:0C08DC009410E5306480948040AB80A450
:10080C0002088CE493A3F8E493A34003F68001F26E
:10081C0008DFF48029E493A3F85407240CC8C333ED
:10082C00C4540F4420C8834004F456800146F6DFBC
:10083C00E4800B01020408102040809008E8E47E5C
:10084C00019360BCA3FF543F30E509541FFEE493B1
:10085C00A360010ECF54C025E060A840B8E493A378
:10086C00FAE493A3F8E493A3C8C582C8CAC583CAA3
:10087C00F0A3C8C582C8CAC583CADFE9DEE780BE5B
:0109150000E1
:00000001FF
