:030000000208F201
:0C08F200787FE4F6D8FD75810C0208E464
:1008D300456D6265646465642053797374656D73F3
:0108E3000014
:0E08E40012085F7BFF7A0879D312080080F2B9
:04088B007F197E0053
:10088F00E4FDFCC3ED9FEC9E5015E4FBFA0BBB009F
:0F089F00010ABA04F8BBFBF50DBD00010C80E4A3
:0108AE002227
:10085F007F381208AF12088B7F0F1208AF12088B68
:10086F007F061208AF12088B7F801208AF12088B19
:0C087F007F011208AF7F0A7E0002088F84
:1008AF008F90C2A0C2A1D2A27F017E0012088FC278
:0208BF00A22273
:060800008B088A09890A39
:10080600E4F50BF50CAB08AA09A90A850C82850B41
:1008160083120832FF60141208C17F0A7E00120894
:0B0826008F050CE50C70DE050B80DA7E
:0108310022A4
:1008C1008F90D2A0C2A1D2A27F017E0012088FC256
:0208D100A22261
:10083200BB010CE58229F582E5833AF583E022507B
:1008420006E92582F8E622BBFE06E92582F8E222C5
:0D085200E58229F582E5833AF583E49322DF
:00000001FF
