:10080000750800750901D3E5099480E50894005046
:10081000EF120851E509648045087028E5096480F5
:1008200045087020F508750980C3E5099401E508BD
:1008300094004010120851E508C313F508E50913A8
:10084000F50980E5E50925E0F509E50833F50880B7
:01085000B5F2
:09085100E509F4F5A07F327E00F8
:10085A00E4FDFCC3ED9FEC9E5015E4FBFA0BBB00D4
:0F086A00010ABA04F8BBFBF50DBD00010C80E4D8
:01087900225C
:0300000002087A79
:0C087A00787FE4F6D8FD758109020800C3
:00000001FF
