:100A7A00000100020004000800100020004000806D
:100A8A00008000400020001000080004000200015D
:10080000780A7C007D007BFF7A0A797A7E007F106F
:10081000120A25781A7C007D007BFF7A0A798A7E8D
:10082000007F10120A25E4F5A0E4F508F509120A84
:100830004B0509E50970020508C39408E5086480C2
:10084000948040EAE4F508F509E50925E0241A1248
:100850000A510509E50970020508C39407E5086413
:1008600080948040E4750800750901120A4B05095F
:10087000E50970020508C39406E508648094804089
:10088000EA750800750901E50925E0241A120A51E4
:100890000509E50970020508C39406E5086480941B
:1008A0008040E4750800750902120A4B0509E50944
:1008B00070020508C39404E5086480948040EA75DA
:1008C0000800750902E50925E0241A120A510509F4
:1008D000E50970020508C39403E50864809480402C
:1008E000E4750800750903120A4B0509E509700251
:1008F0000508C39404E5086480948040EA75080004
:10090000750903C3E5099402E508648094805013D7
:10091000E50925E0241A120A510509E50970E405E4
:100920000880E0750800750904C3E5099406E50828
:10093000648094804003020829E50925E0240AF830
:1009400008E6F5A07F647E00120A5A0509E50970E1
:05095000D8050880D469
:0F0A4B00E50925E0240AF808E6F5A07F327E00D1
:100A5A00E4FDFCC3ED9FEC9E5015E4FBFA0BBB00D2
:0F0A6A00010ABA04F8BBFBF50DBD00010C80E4D6
:010A7900225A
:03000000020A9A57
:0C0A9A00787FE4F6D8FD75812902080081
:10095500E709F608DFFA8046E709F208DFFA803E84
:1009650088828C83E709F0A3DFFA8032E309F60871
:10097500DFFA8078E309F208DFFA807088828C83D9
:10098500E309F0A3DFFA806489828A83E0A3F6088D
:10099500DFFA805889828A83E0A3F208DFFA804C67
:1009A50080D280FA80C680D4806980F2803380103E
:1009B50080A680EA809A80A880DA80E280CA8033A7
:1009C50089828A83ECFAE493A3C8C582C8CCC5831F
:1009D500CCF0A3C8C582C8CCC583CCDFE9DEE780EF
:1009E5000D89828A83E493A3F608DFF9ECFAA9F06E
:1009F500EDFB2289828A83ECFAE0A3C8C582C8CCC4
:100A0500C583CCF0A3C8C582C8CCC583CCDFEADEDC
:100A1500E880DB89828A83E493A3F208DFF980CC3E
:100A250088F0EF60010E4E60C388F0ED2402B40437
:100A35000050B9F582EB2402B4040050AF232345DE
:060A450082239009A57355
:00000001FF
