:0A09830040792430191202780010A8
:1008F600780A7C007D007BFF7A0979837E007F0A77
:100906001208D0209006850AA01209532091068568
:100916000BA0120953209206850CA01209532093AE
:1009260006850DA0120953209406850EA0120953C0
:10093600209506850FA01209532096068510A01251
:0D09460009532097BE8511A012095380B6F9
:040953007F017E00A2
:10095700E4FDFCC3ED9FEC9E5015E4FBFA0BBB00D6
:0F096700010ABA04F8BBFBF50DBD00010C80E4DA
:01097600225E
:030000000209777B
:0C097700787FE4F6D8FD7581130208F6C5
:10080000E709F608DFFA8046E709F208DFFA803EDA
:1008100088828C83E709F0A3DFFA8032E309F608C7
:10082000DFFA8078E309F208DFFA807088828C832F
:10083000E309F0A3DFFA806489828A83E0A3F608E3
:10084000DFFA805889828A83E0A3F208DFFA804CBD
:1008500080D280FA80C680D4806980F28033801094
:1008600080A680EA809A80A880DA80E280CA8033FD
:1008700089828A83ECFAE493A3C8C582C8CCC58375
:10088000CCF0A3C8C582C8CCC583CCDFE9DEE78045
:100890000D89828A83E493A3F608DFF9ECFAA9F0C4
:1008A000EDFB2289828A83ECFAE0A3C8C582C8CC1A
:1008B000C583CCF0A3C8C582C8CCC583CCDFEADE33
:1008C000E880DB89828A83E493A3F208DFF980CC95
:1008D00088F0EF60010E4E60C388F0ED2402B4048E
:1008E0000050B9F582EB2402B4040050AF23234535
:0608F00082239008507302
:00000001FF
