:0C0A390002080000020A0000020C00008D
:10092D00D293D292D291D3E50F94E7E50E648094E1
:10093D00835068AE0EAF0F7C007D0A1208008C0844
:10094D008D09AE0EAF0F7C007D0A1208007C007D74
:10095D000A1208008C0A8D0BAE0EAF0F7C007D6461
:10096D001208008E0C8F0DAF09AE081209A9C291A5
:10097D001209FFD291AF0BAE0A1209A9C292120948
:10098D00FFD292AF0DAE0C1209A9C2931209FFD27C
:0C099D0093050FE50F708F050E808B2274
:1009FF00E4F513F512F511F510E47FE87E03FDFC25
:100A0F00AB13AA12A911A810C3120836501BE4FA8F
:100A1F00F9F8E5132401F513EA3512F512E935114A
:090A2F00F511E83510F51080D036
:010A3800229B
:1009A900EE7052EFB40A00504C9009B9F828287338
:1009B9000209D70209DB0209DF0209E30209E7029A
:1009C90009EB0209EF0209F30209F70209FB75A015
:1009D900BF2275A0062275A05B2275A04F2275A0C3
:1009E900662275A06D2275A07D2275A0072275A0CB
:0609F9007F2275A06F22B1
:030000000208A152
:0C08A100787FE4F6D8FD7581130208E8AA
:10080000C2D5EC30E709B2D5E4C39DFDE49CFCEE13
:1008100030E715B2D5E4C39FFFE49EFE12084CC337
:10082000E49DFDE49CFC800312084C30D507C3E432
:060830009FFFE49EFE2282
:10083600EB9FF5F0EA9E42F0E99D42F0EC6480C839
:0608460064809845F022D9
:1008AD0002092DE493A3F8E493A34003F68001F22B
:1008BD0008DFF48029E493A3F85407240CC8C3334C
:1008CD00C4540F4420C8834004F456800146F6DF1B
:1008DD00E4800B0102040810204080900A39E47E68
:1008ED00019360BCA3FF543F30E509541FFEE49310
:1008FD00A360010ECF54C025E060A840B8E493A3D7
:10090D00FAE493A3F8E493A3C8C582C8CAC583CA01
:10091D00F0A3C8C582C8CAC583CADFE9DEE780BEB9
:010A450000B0
:10084C00BC000BBE0029EF8DF084FFADF022E4CC90
:10085C00F875F008EF2FFFEE33FEEC33FCEE9DEC59
:10086C00984005FCEE9DFE0FD5F0E9E4CEFD22ED9F
:10087C00F8F5F0EE8420D21CFEADF075F008EF2FE9
:10088C00FFED33FD4007985006D5F0F222C398FDDA
:05089C000FD5F0EA2277
:00000001FF
