:10098B004079243019120278001040792430191262
:04099B0002780010CE
:1008F600E4F508F509F50AF50B780C7C00FD7BFF9D
:100906007A09798BFE7F0A1208D078167C007D0062
:100916007BFF7A0979957E007F0A1208D0209056CF
:10092600050BE50B7002050AD3E5099409E5089461
:10093600005019E50B9409E50A64809480400D0582
:1009460009E50970020508E4F50AF50BD3E50994F3
:1009560009E5089400400C750800750909750A0038
:10096600750B09740C2509F8E6F5B0740C250BF81F
:10097600E6F5A03090FD2091A4E5094508709EE5B6
:050986000B450A8098FA
:0300000002099F53
:0C099F00787FE4F6D8FD75811F0208F691
:10080000E709F608DFFA8046E709F208DFFA803EDA
:1008100088828C83E709F0A3DFFA8032E309F608C7
:10082000DFFA8078E309F208DFFA807088828C832F
:10083000E309F0A3DFFA806489828A83E0A3F608E3
:10084000DFFA805889828A83E0A3F208DFFA804CBD
:1008500080D280FA80C680D4806980F28033801094
:1008600080A680EA809A80A880DA80E280CA8033FD
:1008700089828A83ECFAE493A3C8C582C8CCC58375
:10088000CCF0A3C8C582C8CCC583CCDFE9DEE78045
:100890000D89828A83E493A3F608DFF9ECFAA9F0C4
:1008A000EDFB2289828A83ECFAE0A3C8C582C8CC1A
:1008B000C583CCF0A3C8C582C8CCC583CCDFEADE33
:1008C000E880DB89828A83E493A3F208DFF980CC95
:1008D00088F0EF60010E4E60C388F0ED2402B4048E
:1008E0000050B9F582EB2402B4040050AF23234535
:0608F00082239008507302
:00000001FF
