:100974004079243019120278001040792430191279
:0409840002780010E5
:1008F600E4F508F509F50AF50B780C7C00FD7BFF9D
:100906007A097974FE7F0A1208D078167C007D0079
:100916007BFF7A09797E7E007F0A1208D020902319
:100926000509E50970020508D39409E50864809471
:10093600804005E4F508F509740C2509F8E6F5A0EC
:100946003090FD2091D7E50B150B7002150AD3E503
:100956000B9409E50A64809480400685080A850997
:0E0966000B7416250BF8E6F5A02091B180FB6E
:030000000209886A
:0C098800787FE4F6D8FD75811F0208F6A8
:10080000E709F608DFFA8046E709F208DFFA803EDA
:1008100088828C83E709F0A3DFFA8032E309F608C7
:10082000DFFA8078E309F208DFFA807088828C832F
:10083000E309F0A3DFFA806489828A83E0A3F608E3
:10084000DFFA805889828A83E0A3F208DFFA804CBD
:1008500080D280FA80C680D4806980F28033801094
:1008600080A680EA809A80A880DA80E280CA8033FD
:1008700089828A83ECFAE493A3C8C582C8CCC58375
:10088000CCF0A3C8C582C8CCC583CCDFE9DEE78045
:100890000D89828A83E493A3F608DFF9ECFAA9F0C4
:1008A000EDFB2289828A83ECFAE0A3C8C582C8CC1A
:1008B000C583CCF0A3C8C582C8CCC583CCDFEADE33
:1008C000E880DB89828A83E493A3F208DFF980CC95
:1008D00088F0EF60010E4E60C388F0ED2402B4048E
:1008E0000050B9F582EB2402B4040050AF23234535
:0608F00082239008507302
:00000001FF
