:10097800456D6265646465642073797374656D732D
:1009880000456D6265646465642070726F677261AA
:100998006D6D696E6700417373656D626C79207067
:0B09A800726F6772616D6D696E670011
:1008F60078097C007D007BFF7A0979787E007F117C
:100906001208D0781A7C007D007BFF7A0979897EEF
:10091600007F151208D0782F7C007D007BFF7A09B6
:10092600799E7E007F151208D0758920758DFD751C
:100936009850D28E20A011E4F50874091209B30567
:1009460008E508D3941040F220A111E4F508741AC2
:100956001209B30508E508D3941440F220A2D5E4A1
:10096600F508E508D3941450CB742F1209B3050883
:0209760080F00F
:0509B3002508F8E6FF35
:0809B8008F993099FDC29922CC
:030000000209C032
:0C09C000787FE4F6D8FD7581430208F64C
:10080000E709F608DFFA8046E709F208DFFA803EDA
:1008100088828C83E709F0A3DFFA8032E309F608C7
:10082000DFFA8078E309F208DFFA807088828C832F
:10083000E309F0A3DFFA806489828A83E0A3F608E3
:10084000DFFA805889828A83E0A3F208DFFA804CBD
:1008500080D280FA80C680D4806980F28033801094
:1008600080A680EA809A80A880DA80E280CA8033FD
:1008700089828A83ECFAE493A3C8C582C8CCC58375
:10088000CCF0A3C8C582C8CCC583CCDFE9DEE78045
:100890000D89828A83E493A3F608DFF9ECFAA9F0C4
:1008A000EDFB2289828A83ECFAE0A3C8C582C8CC1A
:1008B000C583CCF0A3C8C582C8CCC583CCDFEADE33
:1008C000E880DB89828A83E493A3F208DFF980CC95
:1008D00088F0EF60010E4E60C388F0ED2402B4048E
:1008E0000050B9F582EB2402B4040050AF23234535
:0608F00082239008507302
:00000001FF
