:030000000209747E
:0C097400787FE4F6D8FD75810C020800C5
:100880004C4544203120495320474C4F5700204CC1
:1008900045442032204953204F4646004C454420D1
:1008A0003220495320474C4F57004C4544203120BB
:0708B0004953204F464600AA
:07090F001209507F057E0074
:10091600E4FDFCC3ED9FEC9E5015E4FBFA0BBB0017
:0F092600010ABA04F8BBFBF50DBD00010C80E41B
:01093500229F
:100950008FA0D2B2C2B0C2B17F017E00120916C20E
:02096000B222C1
:100962008FA0D2B2D2B0C2B17F017E00120916C2EC
:02097200B222AF
:0608E4008B088A09890A55
:1008EA00E4F50BF50CAB08AA09A90A850C82850B5D
:1008FA00831208B7FF600D120962050CE50C70E55A
:04090A00050B80E178
:01090E0022C6
:100936007F3812090F7F0C12090F7F8012090F0FE3
:0A0946001209507F057E0002091619
:10080000C290C2911209367F0112095030B60320FE
:10081000B7FA20B62330B720D290C2917BFF7A0876
:1008200079801208E47FC01209507BFF7A08798E24
:100830001208E420B60680FBC291C2907F01120923
:100840005020B72D30B62AC290D2917F01120950A4
:100850007F821209507BFF7A08799C1208E47FC2DC
:100860001209507BFF7A0879AA1208E420B70680A3
:10087000FBC291C2907B007A0079011208E480806B
:1008B700BB010CE58229F582E5833AF583E02250F6
:1008C70006E92582F8E622BBFE06E92582F8E22240
:0D08D700E58229F582E5833AF583E493225A
:00000001FF
