:0300000002092EC4
:0C092E00787FE4F6D8FD75810C0208BD4E
:10083200456D6265646465642053797374656D7394
:1008420000456C656374726F6E69637300456D6217
:1008520065646465642070726F6772616D6D696E44
:0208620067002D
:1008BD0012089120B0097BFF7A08793212080020C6
:1008CD00B1097BFF7A08794312080020B2E27BFF61
:0908DD007A08794F12080080D757
:0408E6007F197E00F8
:1008EA00E4FDFCC3ED9FEC9E5015E4FBFA0BBB0044
:0F08FA00010ABA04F8BBFBF50DBD00010C80E448
:0109090022CB
:100891007F3812090A1208E67F0F12090A1208E6C8
:1008A1007F0612090A1208E67F8012090A1208E679
:0C08B1007F0112090A7F0A7E000208EA9B
:10090A008F90C2A0C2A1D2A27F017E001208EAC2C1
:02091A00A22217
:060800008B088A09890A39
:10080600E4F50BF50CAB08AA09A90A850C82850B41
:1008160083120864FF601412091C7F0A7E00120806
:0B082600EA050CE50C70DE050B80DA23
:0108310022A4
:10091C008F90D2A0C2A1D2A27F017E001208EAC29F
:02092C00A22205
:10086400BB010CE58229F582E5833AF583E0225049
:1008740006E92582F8E622BBFE06E92582F8E22293
:0D088400E58229F582E5833AF583E49322AD
:00000001FF
