:030000000209BB37
:0C09BB00787FE4F6D8FD758125020A0261
:100AC800506C6561736520776169742E2E2E0077EE
:100AD80068696C6520636865636B20706173737700
:100AE8006F726400206E616D65202D2076697275C5
:100AF8000054495348495455002057524F4E4720F7
:100B080050415353574F52440057454C434F4D455E
:100B180000544F204B4559204C4F434B00454E54F1
:100B280045522050494E20434F444500534F52529E
:100B380059004E4F204D4F524520545249414C5375
:010B480000AC
:100D210002080000080A000000000000000002188C
:100D31000009021C00060214000102160002021240
:020D41000000B0
:090CF8007F2A120D5F7F1E7E00B1
:100D0100E4FDFCC3ED9FEC9E5015E4FBFA0BBB0028
:0F0D1100010ABA04F8BBFBF50DBD00010C80E42C
:010D200022B0
:090D44007FC87E00120D017F0141
:100D4D008FA0C2B0C2B1D2B27F017E00120D01C21E
:020D5D00B222C0
:100D5F008FA0D2B0C2B1D2B27F017E00120D01C2FC
:020D6F00B222AE
:060CCD008B218A2289231D
:100CD300E4F524F525AB21AA22A9238525828524C1
:100CE30083120CA0FF600D120D5F0525E52570E54D
:040CF300052480E173
:010CF70022DA
:100C72007F01120D4D7F80120D4D7BFF7A0A79C8DC
:100C82008B1E8A1F89207F38120D4D7F0E120D4D4B
:0E0C92007F06120D4DAB1EAA1FA920020CCD2D
:100B4900D3E5099403E508648094804034120C725B
:100B59007FC0120D4D7BFF7A0A79D7120C82120DD4
:100B6900447F82120D4D7BFF7A0A79EC120CCD7FFE
:100B7900C3120D4D7BFF7A0A79F9120C82D2978044
:100B89002C120C727FC0120D4D7BFF7A0A79D71295
:100B99000C82120D447F82120D4D7BFF7A0B790175
:100BA900120CCDC2970513E513700205127FF47E6E
:050BB90001120D0122F4
:100A4700D3E51B9403E51A648094805068E51B2462
:100A570001FFE4351AFE705DEF24FE601E14602F5F
:100A67001460402403704EE519B50B49E518B50A23
:100A7700440509E509703E0508803AE51DB50D35C1
:100A8700E51CB50C300509E509702A05088026E53F
:100A970015B50F21E514B50E1C0509E509701605F6
:100AA700088012E517B5110DE516B510080509E51B
:100AB7000970020508E51B6403451A7003120B4908
:010AC700220C
:10080000EE60030208E3EFB40A0040030208E3903D
:100810000816F82828730208D20208340208460293
:10082000085802086A02087C02088E02089F020823
:10083000B00208C1120CF8E51B25E0240AF8760086
:100840000876010208E0120CF8E51B25E0240AF8FE
:1008500076000876020208E0120CF8E51B25E02479
:100860000AF876000876030208E0120CF8E51B256A
:10087000E0240AF876000876040208E0120CF8E595
:100880001B25E0240AF876000876050208E0120C21
:10089000F8E51B25E0240AF8760008760680411268
:1008A0000CF8E51B25E0240AF8760008760780306E
:1008B000120CF8E51B25E0240AF87600087608807B
:1008C0001F120CF8E51B25E0240AF87600087609CB
:1008D000800E120CF8E51B25E0240AF8E4F608F671
:0408E000120A47228F
:100BFE00D293D292D291D290C2902094077F017E4E
:100C0E0000120800D290C2912094077F047E001239
:100C1E000800D291C2922094077F077E001208002E
:0A0C2E00D292C293209402D29322C6
:100BBE00D293D292D291D290C2902095077F027E8C
:100BCE0000120800D290C2912095077F057E001278
:100BDE000800D291C2922095077F087E001208006D
:100BEE00D292C293209506E4FFFE120800D2932201
:100C3800D293D292D291D290C2902096077F037E0F
:100C480000120800D290C2912096077F067E0012FB
:100C58000800D291C2922096077F097E00120800F0
:0A0C6800D292C293209602D293228A
:1008E400C297D296D295D2947F01120D4D7F831276
:1008F4000D4D7BFF7A0B7911120C827FC3120D4DC3
:100904007BFF7A0B7919120C82120D44C2977F82F5
:10091400120D4D7BFF7A0B7925120C82E4F508F554
:1009240009C293C292C291C29030940630950320BA
:1009340096F7E4F51AF51BC3E51B9404E51A6480E5
:10094400948050A47F0A7E00120D01E51B24C4FF8D
:10095400120D4DC293C292C291C29030940630954A
:10096400032096F7C293C292C291C29020940512BA
:100974000BFE800E209505120BBE800620960312F6
:100984000C38E5136404451270237F01120D4D7F6A
:1009940086120D4D7BFF7A0B7934120C827FC112C3
:1009A4000D4D7BFF7A0B793A120C8280FE051BE514
:0709B4001B7084051A80800E
:1009C7000208E4E493A3F8E493A34003F68001F25A
:1009D70008DFF48029E493A3F85407240CC8C33331
:1009E700C4540F4420C8834004F456800146F6DF00
:1009F700E4800B0102040810204080900D21E47E62
:100A0700019360BCA3FF543F30E509541FFEE493F4
:100A1700A360010ECF54C025E060A840B8E493A3BB
:100A2700FAE493A3F8E493A3C8C582C8CAC583CAE6
:100A3700F0A3C8C582C8CAC583CADFE9DEE780BE9E
:010D430000AF
:100CA000BB010CE58229F582E5833AF583E0225009
:100CB00006E92582F8E622BBFE06E92582F8E22253
:0D0CC000E58229F582E5833AF583E493226D
:00000001FF
