:0C0910000A084079243019120278001007
:03091D0002088C41
:10088C00E4F512F513D29074082513F8E6F5A012CE
:10089C0008D7C2900513E51370020512D39409E52D
:1008AC0012940040E0E4F518F519D2927408251959
:1008BC00F8E6F5A01208D7C2920519E519700205E1
:0B08CC0018D39409E518940040E022C6
:1008D700758901758AFD758C4BE4F514F515E4F5FA
:1008E70016F5170517E51770020516B4F4F5E516A2
:1008F700B401F00515E5157002051464C8451470B8
:09090700DDD28C308DFDC28D2281
:03000000020800F3
:0C080000787FE4F6D8FD758119020847E6
:10080C0002091DE493A3F8E493A34003F68001F2DC
:10081C0008DFF48029E493A3F85407240CC8C333ED
:10082C00C4540F4420C8834004F456800146F6DFBC
:10083C00E4800B0102040810204080900910E47E33
:10084C00019360BCA3FF543F30E509541FFEE493B1
:10085C00A360010ECF54C025E060A840B8E493A378
:10086C00FAE493A3F8E493A3C8C582C8CAC583CAA3
:10087C00F0A3C8C582C8CAC583CADFE9DEE780BE5B
:01091C0000DA
:00000001FF
