:10039D000000000000000000000000000000000050
:1003AD0000600060000000000000000000580038F0
:1003BD000000000000000000006600660000000064
:1003CD000000003E005100490045003E00000000C5
:1003DD000042007F00400000000000080008003EC1
:1003ED0000080008000000000008000800080000D8
:1003FD00000000220014007F0014002200000020E5
:10040D0000100008000400020000004200610051CD
:10041D00004900460000007E000900090009007E29
:10042D000000007F00490049004900360000003EF1
:10043D0000410041004100220000001E002100612A
:10044D000021001200000022004900490049003639
:10045D000000007F004100410041003E0000007F90
:10046D0000490049004900410000007F00090009D2
:10047D00000900010000003E004100490049007ADA
:10048D000000000F000800080008007F0000003C7D
:10049D0000430053005300740000007F0008000863
:1004AD000008007F000000000041007F00410000B7
:1004BD00000000000042007F004200000000004FDD
:1004CD000049004900490031000000200040004073
:1004DD000040003F0000007F000800140022004192
:1004ED000000007F00400040004000400000007F01
:1004FD00000200040002007F0000003E0049004998
:10050D00004900320000007F000200040008007F57
:10051D000000003E004100410041003E0000003C53
:10052D00004300420043003C0000007F0009000929
:10053D00000900060000000100710009000500031C
:10054D000000003E004100510061007E0000007F70
:10055D000009001900290046000000260049004945
:10056D00004900320000000200150055001500087A
:10057D000000003600490049004900360000000126
:10058D000001007F000100010000003F004000401D
:10059D000040003F0000003C004100400041003C95
:1005AD000000001F002000400020001F000000067A
:1005BD00004900490049003E0000003F0040003066
:1005CD000040003F000000630014000800140063A9
:1005DD000000000300040078000400030000006127
:0805ED000051004900450043E4
:100CDD004201FA00014201FC0000420206000054EC
:100CED0001E6000000000000000000000000000010
:100CFD0000000000000042030000004201FE000061
:100D0D0042020800004201E20000420200000042DF
:100D1D000202000042020C00004202FE00004201ED
:100D2D00E4000042020400014201E0000042020A18
:020D3D00001D97
:10000300C2A330A3030200F620A049900206E4F045
:10001300A304F0E025E0FF900206E033FE74E62F30
:10002300F58274013EF583E475F001120B2374E647
:100033002FF58274013EF583C083C082E0FEA3E006
:10004300FF7C007D05120AEDD082D083ECF0A3ED96
:10005300F030A0FD20A14A900206E4F0A37402F060
:10006300E025E0FF900206E033FE74E62FF582748C
:10007300013EF583E475F001120B2374E62FF5823C
:1000830074013EF583C083C082E0FEA3E0FF7C00E1
:100093007D05120AEDD082D083ECF0A3EDF030A100
:1000A300FD20A24A900206E4F0A37403F0E025E0E9
:1000B300FF900206E033FE74E62FF58274013EF5ED
:1000C30083E475F001120B2374E62FF58274013E6D
:1000D300F583C083C082E0FEA3E0FF7C007D0512B0
:1000E3000AEDD082D083ECF0A3EDF030A2FDD2A3D1
:1000F300020005C2A430A4030201EA20A04A900230
:1001030006E4F0A37404F0E025E0FF900206E03378
:10011300FE74E62FF58274013EF583E475F0011257
:100123000B2374E62FF58274013EF583C083C082EE
:10013300E0FEA3E0FF7C007D05120AEDD082D083B0
:10014300ECF0A3EDF030A0FD20A14A900206E4F00C
:10015300A37405F0E025E0FF900206E033FE74E6A9
:100163002FF58274013EF583E475F001120B2374BD
:10017300E62FF58274013EF583C083C082E0FEA3BF
:10018300E0FF7C007D05120AEDD082D083ECF0A362
:10019300EDF030A1FD20A24A900206E4F0A374061C
:1001A300F0E025E0FF900206E033FE74E62FF582CF
:1001B30074013EF583E475F001120B2374E62FF509
:1001C3008274013EF583C083C082E0FEA3E0FF7C1E
:1001D300007D05120AEDD082D083ECF0A3EDF03060
:1001E300A2FDD2A40200F8C2A530A5030202DE20BC
:1001F300A04A900206E4F0A37407F0E025E0FF9024
:100203000206E033FE74E62FF58274013EF583E4C3
:1002130075F001120B2374E62FF58274013EF5830A
:10022300C083C082E0FEA3E0FF7C007D05120AEDDF
:10023300D082D083ECF0A3EDF030A0FD20A14A9052
:100243000206E4F0A37408F0E025E0FF900206E064
:1002530033FE74E62FF58274013EF583E475F001F5
:10026300120B2374E62FF58274013EF583C083C01D
:1002730082E0FEA3E0FF7C007D05120AEDD082D070
:1002830083ECF0A3EDF030A1FD20A24A900206E436
:10029300F0A37409F0E025E0FF900206E033FE745A
:1002A300E62FF58274013EF583E475F001120B230A
:1002B30074E62FF58274013EF583C083C082E0FEAD
:1002C300A3E0FF7C007D05120AEDD082D083ECF021
:1002D300A3EDF030A2FDD2A50201ECC2A630A60325
:1002E30002039C20A0569001FDE004F070069001EB
:1002F300FCE004F0E4900206F0A3F030A0FDE490EB
:100303000208F0A3F0900208E0FEA3E0FFC3940A02
:10031300EE648094805025EF25E0FFEE33FE74E613
:100323002FF58274013EF583E4F0A3F0900209E017
:1003330004F07006900208E004F080C920A148E4AC
:10034300900206F0A3F0E025E0FF900206E033FE02
:1003530074E62FF58274013EF583E475F001120B08
:100363002374E62FF58274013EF583C083C082E0D7
:10037300FEA3E0FF7C007D05120AEDD082D083EC62
:10038300F0A3EDF030A1FD20A20AE49001FAF0A35E
:0A039300F030A2FDD2A60202E02223
:100B9A00E49001E2F0A3F0900207E025E0FF900262
:100BAA0006E033FE74E62FF58274013EF583E0FA1F
:100BBA00A3E0FB900206E0FEA3E0FF7C007D0512A5
:100BCA000ADBEB2FFFEA3EFE90039D75F00CEF1255
:100BDA000B39EE75F00CA42583F583C083C082908F
:100BEA0001E3E025E0FF9001E2E033FED082D0830A
:100BFA00E5822FF582E5833EF583E493FC74019345
:100C0A00FD9001FCE0FAA3E090020E75F00C120BC5
:100C1A0039EA75F00CA42583F583E5822FF582E580
:100C2A00833EF583ECF0A3EDF09001E3E004F0706D
:100C3A00069001E2E004F09001E2E07004A3E064AF
:070C4A00066003020BA1226A
:10082B00E490020CF0A3F0E49002FEF0A3F0C2B04F
:10083B00D2B0E49001E4F0A3F09001FDE02401FFBD
:10084B009001FCE03400FE7C007D06120ADB900177
:10085B00E4E0FCA3E0FDC39FEE6480F8EC648098B9
:10086B005055ED25E0FFEC33FE900200E0FCA3E0D9
:10087B0090020E75F00C120B39EC75F00CA425835D
:10088B00F583E5822FF582E5833EF583E0FEA3E059
:10089B00FF900204E0FCA3E0FDEE5CFEEF5D4E2456
:1008AB00FF92B2C2B1D2B19001E5E004F0708A9030
:1008BB0001E4E004F08082900205E0F590E4900101
:1008CB00E0F0A3F09001E1E004F070069001E0E0AD
:1008DB0004F09001E0E07004A3E0640170E6E4F53D
:1008EB0090900205E025E0FF900204E033FEF0A3B8
:1008FB00EFF064804E7007900204F0A304F020B375
:10090B007930B3FDE4900202F0A3F0900202E0FE16
:10091B00A3E0FFC39406EE64809480503EEF25E085
:10092B00FFEE33FE9001FCE0FCA3E090020E75F0AD
:10093B000C120B39EC75F00CA42583F583E5822F93
:10094B00F582E5833EF583E4F0A3F0900203E00427
:10095B00F070B8900202E004F080B09001FCE070FF
:10096B0002A3E0600E9001FDE024FFF09001FCE09B
:10097B0034FFF0E4900206F0A3F09002FFE004F0E5
:10098B0070069002FEE004F09002FEE07004A3E01B
:10099B006407600302083990020DE004F0700690C2
:1009AB00020CE004F090020CE07004A3E06402601F
:0809BB0003020832E4F590226A
:1009C300900200E4F0A37409F090020AE0FEA3E0B1
:1009D300FFC3900201E09FEE6480F8900200E064A0
:1009E30080984003020A88E4900202F0A3F0900288
:1009F30002E0FEA3E0FFC39406EE6480948050718E
:100A0300EF25E0FFEE33FE900200E0FCA3E090014F
:100A1300A275F00C120B39EC75F00CA42583F58349
:100A2300E5822FF582E5833EF583E0FAA3E0FB90B0
:100A33000200E0FEA3E0FF7C007D06120ADB9002C9
:100A430003E02FFF900202E03EFEEF25E0FFEE33CE
:100A5300FE74002FF58274003EF583EAF0A3EBF0F9
:100A6300900203E004F07086900202E004F00209B1
:100A7300F1900201E004F060030209CC900200E06F
:100A830004F00209CC900200E0FEA3E0FF7C007DAD
:100A930006120ADB900203E02FF0900202E03EF020
:100AA300900202E0FEA3E0FFC394F0EE6480948022
:100AB3005025EF25E0FFEE33FE74002FF58274001E
:100AC3003EF583E4F0A3F0900203E004F070D190CC
:080AD3000202E004F080C922D8
:1005F500E4900200F0A3F09001FCE0FEA3E0FF7C94
:10060500007D06120ADBEF243CFFE43EFEC39002A8
:1006150001E09FEE6480F8900200E064809850D07D
:10062500E490020CF0A3F0E49002FEF0A3F0C2B057
:10063500D2B0E49001E4F0A3F09001E4E0FEA3E081
:10064500FFC3943CEE648094805048900201E02FF3
:10065500FF900200E03EFEEF25E0FFEE33FE740062
:100665002FF58274003EF583E0FEA3E0FF900204BF
:10067500E0FCA3E0FDEE5CFEEF5D4E24FF92B2C20E
:10068500B1D2B19001E5E004F070AE9001E4E00470
:10069500F080A6900205E0F590E49001E0F0A3F06B
:1006A5009001E1E004F070069001E0E004F09001B3
:1006B500E0E07004A3E0640170E6E4F590900205C3
:1006C500E025E0FF900204E033FEF0A3EFF0648044
:1006D5004E7007900204F0A304F030B3030207E064
:1006E50030B3FDE4900208F0A3F0900208E0FEA309
:1006F500E0FFC3940AEE648094805025EF25E0FF67
:10070500EE33FE74E62FF58274013EF583E4F0A323
:10071500F0900209E004F070D1900208E004F08046
:10072500C9E4900208F0A3F0E4900202F0A3F0906F
:100735000202E0FEA3E0FFC39406EE6480948050BD
:100745003EEF25E0FFEE33FE900208E0FCA3E090CB
:10075500020E75F00C120B39EC75F00CA42583F51F
:1007650083E5822FF582E5833EF583E4F0A3F090DF
:100775000203E004F070B8900202E004F080B0904B
:100785000209E004F07006900208E004F090020807
:10079500E07004A3E06414708FE4900208F0A3F005
:1007A500900208E0FEA3E0FFC394C0EE648094804D
:1007B5005025EF25E0FFEE33FE74002FF58274001F
:1007C5003EF583E4F0A3F0900209E004F070D190C7
:1007D5000208E004F080C9C2B4D2B49002FFE0047C
:1007E500F070069002FEE004F09002FEE07004A3B3
:1007F500E06407600302063390020DE004F0700622
:1008050090020CE004F090020CE07004A3E0640A8E
:10081500600302062C900201E004F07006900200CD
:06082500E004F00205FCF6
:100D4000D2B49001FAE07002A3E060179001FCE0D9
:100D50007004A3E06414600B120003120B9A1208D3
:090D60002B80DF1209C30205F526
:03000000020C519E
:0C0C5100787FE4F6D8FD758107020C984E
:100ADB00EF8DF0A4A8F0CF8CF0A428CE8DF0A42E2F
:020AEB00FE22E9
:100AED00C2D5EC30E709B2D5E4C39DFDE49CFCEE24
:100AFD0030E715B2D5E4C39FFFE49EFE120B45C34C
:100B0D00E49DFDE49CFC8003120B4530D507C3E446
:060B1D009FFFE49EFE2292
:100B2300C5F0F8A3E028F0C5F0F8E582158270025D
:060B33001583E038F022FA
:0C0B3900A42582F582E5F03583F58322C7
:100C5D00020D40E493A3F8E493A34003F68001F260
:100C6D0008DFF48029E493A3F85407240CC8C33398
:100C7D00C4540F4420C8834004F456800146F6DF67
:100C8D00E4800B0102040810204080900CDDE47E0E
:100C9D00019360BCA3FF543F30E509541FFEE4935C
:100CAD00A360010ECF54C025E060A840B8E493A323
:100CBD00FAE493A3F8E493A3C8C582C8CAC583CA4E
:100CCD00F0A3C8C582C8CAC583CADFE9DEE780BE06
:010D3F0000B3
:100B4500BC000BBE0029EF8DF084FFADF022E4CC94
:100B5500F875F008EF2FFFEE33FEEC33FCEE9DEC5D
:100B6500984005FCEE9DFE0FD5F0E9E4CEFD22EDA3
:100B7500F8F5F0EE8420D21CFEADF075F008EF2FED
:100B8500FFED33FD4007985006D5F0F222C398FDDE
:050B95000FD5F0EA227B
:00000001FF
