:0A09F3004079243019120278001038
:1008F600780C7C007D007BFF7A0979F37E007F0A05
:100906001208D0750800750909E4F50AF50BC3E568
:100916000B9419E50A6480948040030209AE740CB6
:100926002509F8E6F5B0AF0BAE0A1209C7D293D285
:1009360090D2A5D2A2C294C291C2A4C2A1C2A3C29D
:10094600A0C295C2927F887E131209C7D294D29113
:10095600C2A4C2A1D2A5D2A2C293C2A0C293C2907F
:10096600C295C2927FDC7E051209C7D295D292D279
:10097600A3D2A0C2A5C2A2C294C291C2A4C2A17FA0
:10098600887E131209C7C294C291D2A4D2A1C2A56D
:10099600C2A2C2A3C2A0C293C290D295D2927FDC59
:1009A6007E051209C7020924E50915097002150812
:1009B600D3E5099400E50864809480400302090F9A
:0109C600220E
:1009C700E4FDFCC3ED9FEC9E5015E4FBFA0BBB0066
:0F09D700010ABA04F8BBFBF50DBD00010C80E46A
:0109E60022EE
:030000000209E70B
:0C09E700787FE4F6D8FD7581150208F653
:10080000E709F608DFFA8046E709F208DFFA803EDA
:1008100088828C83E709F0A3DFFA8032E309F608C7
:10082000DFFA8078E309F208DFFA807088828C832F
:10083000E309F0A3DFFA806489828A83E0A3F608E3
:10084000DFFA805889828A83E0A3F208DFFA804CBD
:1008500080D280FA80C680D4806980F28033801094
:1008600080A680EA809A80A880DA80E280CA8033FD
:1008700089828A83ECFAE493A3C8C582C8CCC58375
:10088000CCF0A3C8C582C8CCC583CCDFE9DEE78045
:100890000D89828A83E493A3F608DFF9ECFAA9F0C4
:1008A000EDFB2289828A83ECFAE0A3C8C582C8CC1A
:1008B000C583CCF0A3C8C582C8CCC583CCDFEADE33
:1008C000E880DB89828A83E493A3F208DFF980CC95
:1008D00088F0EF60010E4E60C388F0ED2402B4048E
:1008E0000050B9F582EB2402B4040050AF23234535
:0608F00082239008507302
:00000001FF
