:03000000020800F3
:0C080000787FE4F6D8FD758117020847E8
:1009E300020C00000A0E30313233343536373839D1
:1009CD00E4FFE4FEEEC394FB7480948450030E8028
:0509DD00F30FBFF5ED72
:0109E20022F2
:1009F4008F90D2B4C2B2C2B37F051209CDC2B42261
:10098600AE0C7C007D0A12088C8E088F097F8012BF
:1009960009F4740E2509F8E6FF1209BDAE0CAF0D79
:1009A6007C007D0A12088C8C0A8D0B7F811209F45B
:0709B600740E250BF8E6FFAB
:1009BD008F90D2B4D2B2C2B37F321209CDC2B4225B
:100917007590FF7F381209F47F0C1209F420A62D79
:10092700E50D6463450C70167F801209F4AF17124A
:1009370009BD7F811209F4AF171209BD800F050D9C
:10094700E50D7002050CFF12098630A6FD20A7CD24
:10095700E50D450C70177F801209F4AF0E1209BD23
:100967007F811209F4AF0E1209BD020924E50D15A6
:0F0977000D7002150CAF0D12098620A7A080FB92
:10080C00020917E493A3F8E493A34003F68001F2E2
:10081C0008DFF48029E493A3F85407240CC8C333ED
:10082C00C4540F4420C8834004F456800146F6DFBC
:10083C00E4800B01020408102040809009E3E47E60
:10084C00019360BCA3FF543F30E509541FFEE493B1
:10085C00A360010ECF54C025E060A840B8E493A378
:10086C00FAE493A3F8E493A3C8C582C8CAC583CAA3
:10087C00F0A3C8C582C8CAC583CADFE9DEE780BE5B
:0109F3000003
:10088C00C2D5EC30E709B2D5E4C39DFDE49CFCEE87
:10089C0030E715B2D5E4C39FFFE49EFE1208C2C335
:1008AC00E49DFDE49CFC80031208C230D507C3E430
:0608BC009FFFE49EFE22F6
:1008C200BC000BBE0029EF8DF084FFADF022E4CC1A
:1008D200F875F008EF2FFFEE33FEEC33FCEE9DECE3
:1008E200984005FCEE9DFE0FD5F0E9E4CEFD22ED29
:1008F200F8F5F0EE8420D21CFEADF075F008EF2F73
:10090200FFED33FD4007985006D5F0F222C398FD63
:050912000FD5F0EA2200
:00000001FF
