:03000000020BE808
:0C0BE800787FE4F6D8FD758128020C2F00
:100D760057656C636F6D6521212100507265737331
:100D860000627574746F6E00746F00766F74650020
:100D96005031005032005033005034005468616EB8
:100DA6006B00596F75212100526573756C74730061
:100DB600417265004F757400487572726179212120
:100DC600210077696E7300636C61736800626574F5
:100DD6007765656E21212100696E69740062656719
:030DE600696E0033
:080F21000212000002080000AA
:100ED9007F327E00120EE97F14120F0F7F327E00DF
:100EE900E4FDFCD3ED9FEE6480F8EC648098501526
:100EF900E4FBFA0BBB00010ABA03F8BBE9F50DBD27
:050F090000010C80DE78
:010F0E0022C0
:100F0F008FA0D2B6C2B0C2B17F017E00120EE9C26D
:020F1F00B622F8
:060E9B007BFF7A0D79993E
:060EA1008B248A2589263E
:100EA700E4F527F528AB24AA25A9268528828527D6
:100EB70083120C74601BF5A0C2B1D2B0D2B67F0109
:100EC7007E00120EE9C2B60528E52870D8052780EE
:010ED700D446
:010ED80022F7
:040DE900AB07AA06A4
:100DED007522007523027C007D0AAF03AE02120C42
:100DFD00A1E52325E0241CF8A60408A6057C007DAA
:100E0D000AAF03AE02120CA1AA06AB07E523152308
:100E1D0070021522E523B4FFCDE522B4FFC8900082
:100E2D0000AF82EF25E0241CF808E62430F9F5A088
:100E3D00C2B1D2B0D2B67F017E00120EE9C2B6A306
:080E4D00E5826403458370D9BE
:010E5500227A
:100E56002091092092062093033094F430910B20C0
:100E660091FD0515E5157002051430920B2092FDD3
:100E76000517E5177002051630930B2093FD05192B
:100E8600E5197002051830940B2094FD051BE51B2F
:050E96007002051A22A4
:100B12007F38120EE27F0E120EE27F01120EE27F8A
:100B220081120EE27BFF7A0D7976120EA17F647E2E
:100B320000120EE97F01120EE27F80120EE27BFFAD
:100B42007A0D7981120EA1120ED97BFF7A0D798767
:100B5200120EA1120EE5120EE97FC0120EE27BFF09
:100B62007A0D798E120EA1120ED97BFF7A0D799130
:100B7200120EA17F647E00120EE97F01120EE27F47
:100B820080120EE27BFF7A0D7996120EA1120EE50B
:100B92007F84120EE2120E9B120EE57F88120EE285
:100BA2007BFF7A0D799C120EA1120EE57F8C120E3C
:100BB200E27BFF7A0D799F120EA1120EE5120E56FC
:100BC2007F01120EE27F85120EE27BFF7A0D79A27F
:100BD200120EA1120ED97BFF7A0D79A8120EA17FF7
:060BE200647E00020EE932
:10080000E4F508F5097F01120EE27F80120EE27B0B
:10081000FF7A0D79AE120EA1120ED97BFF7A0D79F7
:10082000B6120EA1120ED97BFF7A0D79BA120EA163
:10083000120EE57F01120EE27F80120EE27BFF7A3C
:100840000D7996120EA1120EE57F84120EE2120EA1
:100850009B120EE57F88120EE27BFF7A0D799C12C7
:100860000EA1120EE57F8C120EE27BFF7A0D799FAE
:10087000120EA1120EE57FC0120F0F7F647E0012D0
:100880000EE9AF15AE14120DE9120EE57FC4120E7B
:10089000E2AF17AE16120DE9120EE57FC8120EE296
:1008A000AF19AE18120DE9120EE57FCC120EE2AFB1
:1008B0001BAE1A120DE97F2C7E01120EE985140A77
:1008C00085150B85160C85170D85180E85190F8556
:1008D0001A10851B11E4FF1EEF25E0240AF8E6FC40
:1008E00008E6FDC39513E5126480F8EC6480984037
:1008F000048C128D130FBF00010EEF64044E70D8EC
:10090000E51365157004E5126514705DE513651750
:100910007004E51265166051E51365197004E5125F
:1009200065186045E513651B7004E512651A6039AA
:100930007508007509017F01120EE27F82120EE236
:100940007BFF7A0D79BE120EA1120EE57FC4120E46
:10095000E27BFF7A0D7996120EA1120ED97BFF7AF7
:100960000D79C8120EA1120EE5E51365177004E5A6
:100970001265167057E51365157004E5126514606D
:100980004BE51365197004E5126518603FE51365C2
:100990001B7004E512651A60337508007509017F44
:1009A00001120EE27F82120EE27BFF7A0D79BE12F7
:1009B0000EA1120EE57FC4120EE2120E9B120ED98A
:1009C0007BFF7A0D79C8120EA1120EE5E5136519A9
:1009D0007004E5126518705DE51365177004E51283
:1009E00065166051E51365157004E51265146045E0
:1009F000E513651B7004E512651A6039750800750A
:100A000009017F01120EE27F82120EE27BFF7A0D56
:100A100079BE120EA1120EE57FC4120EE27BFF7AA0
:100A20000D799C120EA1120ED97BFF7A0D79C81296
:100A30000EA1120EE5E513651B7004E512651A7030
:100A40005DE51365177004E51265166051E51365E1
:100A5000197004E51265186045E51365157004E525
:100A600012651460397508007509017F01120EE2E4
:100A70007F82120EE27BFF7A0D79BE120EA1120E5A
:100A8000E57FC4120EE27BFF7A0D799F120EA11250
:100A90000ED97BFF7A0D79C8120EA1120EE5E50979
:100AA0004508706D7F01120EE27F82120EE27BFF1D
:100AB0007A0D79CD120EA1120ED97BFF7A0D79D362
:100AC000120EA1120EE5E513B51710E512B5160BBF
:100AD0007FC5120F0F120E9B120EE5E513B5191606
:100AE000E512B518117FC9120F0F7BFF7A0D799CA3
:100AF000120EA1120EE5E513B51B16E512B51A117B
:100B00007FCD120F0F7BFF7A0D799F120EA1120E6F
:010B1000E5FF
:010B110022C1
:100CF600D295D290E4F51AF51BF518F519F516F507
:100D060017F514F515C294C293C292C2917F381298
:100D16000EE27F0E120EE27F01120EE27F80120EAD
:100D2600E27BFF7A0D7981120EA1120ED97BFF7A32
:100D36000D79DE120EA1120EE5120EE97FC0120E1B
:100D4600E27BFF7A0D798E120EA1120ED97BFF7A05
:100D56000D79E3120EA17F647E00120EE930900336
:100D66002095FA309505120B1280F212080080FBCE
:100BF400020CF6E493A3F8E493A34003F68001F215
:100C040008DFF48029E493A3F85407240CC8C33301
:100C1400C4540F4420C8834004F456800146F6DFD0
:100C2400E4800B0102040810204080900F21E47E30
:100C3400019360BCA3FF543F30E509541FFEE493C5
:100C4400A360010ECF54C025E060A840B8E493A38C
:100C5400FAE493A3F8E493A3C8C582C8CAC583CAB7
:100C6400F0A3C8C582C8CAC583CADFE9DEE780BE6F
:010F290000C7
:100C7400BB010CE58229F582E5833AF583E0225035
:100C840006E92582F8E622BBFE06E92582F8E2227F
:0D0C9400E58229F582E5833AF583E4932299
:100CA100BC000BBE0029EF8DF084FFADF022E4CC37
:100CB100F875F008EF2FFFEE33FEEC33FCEE9DEC00
:100CC100984005FCEE9DFE0FD5F0E9E4CEFD22ED46
:100CD100F8F5F0EE8420D21CFEADF075F008EF2F90
:100CE100FFED33FD4007985006D5F0F222C398FD81
:050CF1000FD5F0EA221E
:00000001FF
